:020000000F28C7
:10000800CF00030883129E0004089F000A08A0007E
:100018004E08A1001E29BC29640083168111643092
:100028008312810003100030031801308B00073061
:100038008316810083128B168B170030A2000030C4
:10004800A300031000300318013083168600031044
:100058000030031801308500013083129A00003007
:100068009B000030A6000030A7000030A40000303C
:10007800A50064009321831383120F089D019D0737
:100088000E089C019C071B081D06031D4D281A0815
:100098001C060319502851285B281D081C04031D41
:1000A800562857285B280130A6060030A7061D08E9
:1000B8009B019B071C089A019A0725089001900745
:1000C80024088F018F07A921831383121008970131
:1000D80097070F0896019607D2203D280F28A628D3
:1000E8007E308C0000308D00D1280C308C00003020
:1000F8008D00D128B6308C0000308D00D1289E307C
:100108008C0000308D00D128CC308C0000308D0060
:10011800D128DA308C0000308D00D128FA308C00DC
:1001280000308D00D1280E308C0000308D00D12891
:10013800FE308C0000308D00D128DE308C0000307D
:100148008D00D128C82883120C08003A0319742896
:10015800013A03197928033A03197E28013A031949
:100168008328073A03198828013A03198D28033A86
:1001780003199228013A031997280F3A03199C2862
:10018800013A0319A128CD280D08003A0319A72818
:10019800CD2800308C0000308D000800003083121C
:1001A8009400003095001508803A930080301302BF
:1001B800031DE02804301402031CE328E428E52882
:1001C8001D29083083129300140AEC280310930C9D
:1001D800FF3E031DEA2813080F3A85000130160573
:1001E8008C00003017058D007320831383120C08D0
:1001F800860001309300170D970C960C930BFF287F
:1002080004309100003092005C2101308312940781
:100218000318950A003095071508803A9300803036
:100228001302031D192904301402031C1C291D295B
:10023800E52808008B1E2129222951290B1D252973
:10024800262951290A3022062304031D2C292D2989
:1002580048290030A2000030A30027082604031D07
:10026800362937294829103024062504031D3D293D
:100278003E2942290030A4000030A5000130A4071F
:100288000318A50A0030A5070130A2070318A30A1E
:100298000030A3079E3081000B112108CE002008F2
:1002A8008A001F0884001E088300CF0E4F0E090025
:1002B800003083128F0000309000842900308312B0
:1002C8008D0000308E006F29013083128D070318CE
:1002D8008E0A00308E070E08803A8C001208803A89
:1002E8000C02031D792911080D02031C7C297D29A4
:1002F8006829013083128F070318900A003090078D
:100308001008803A8C001208803A0C02031D8E29CE
:1003180011080F02031C91299229622908008312EF
:100328000614061C982999299E2900308C00003053
:100338008D00A22901308C0000308D000D088F013E
:100348008F070C088E018E070800831210088D0095
:100358000F088C0001308E000D0D8D0C8C0C8E0B4F
:10036800B0290F080C068F0010080D069000080031
:10037800A201A301A401A501A601A70183011028D8
:00000001FF
